{
  "contractName": "KarmaToken",
  "abi": [
    {
      "constant": true,
      "inputs": [],
      "name": "name",
      "outputs": [
        {
          "name": "",
          "type": "string"
        }
      ],
      "payable": false,
      "stateMutability": "view",
      "type": "function"
    },
    {
      "constant": false,
      "inputs": [
        {
          "name": "_spender",
          "type": "address"
        },
        {
          "name": "_value",
          "type": "uint256"
        }
      ],
      "name": "approve",
      "outputs": [
        {
          "name": "success",
          "type": "bool"
        }
      ],
      "payable": false,
      "stateMutability": "nonpayable",
      "type": "function"
    },
    {
      "constant": false,
      "inputs": [
        {
          "name": "_owner",
          "type": "address"
        }
      ],
      "name": "setOwner",
      "outputs": [],
      "payable": false,
      "stateMutability": "nonpayable",
      "type": "function"
    },
    {
      "constant": false,
      "inputs": [
        {
          "name": "_from",
          "type": "address"
        },
        {
          "name": "_to",
          "type": "address"
        },
        {
          "name": "_value",
          "type": "uint256"
        }
      ],
      "name": "transferFrom",
      "outputs": [
        {
          "name": "success",
          "type": "bool"
        }
      ],
      "payable": false,
      "stateMutability": "nonpayable",
      "type": "function"
    },
    {
      "constant": true,
      "inputs": [],
      "name": "decimals",
      "outputs": [
        {
          "name": "",
          "type": "uint256"
        }
      ],
      "payable": false,
      "stateMutability": "view",
      "type": "function"
    },
    {
      "constant": false,
      "inputs": [
        {
          "name": "_to",
          "type": "address"
        },
        {
          "name": "_amount",
          "type": "uint256"
        }
      ],
      "name": "generate",
      "outputs": [
        {
          "name": "success",
          "type": "bool"
        }
      ],
      "payable": false,
      "stateMutability": "nonpayable",
      "type": "function"
    },
    {
      "constant": true,
      "inputs": [
        {
          "name": "_owner",
          "type": "address"
        }
      ],
      "name": "balanceOf",
      "outputs": [
        {
          "name": "balance",
          "type": "uint256"
        }
      ],
      "payable": false,
      "stateMutability": "view",
      "type": "function"
    },
    {
      "constant": true,
      "inputs": [],
      "name": "symbol",
      "outputs": [
        {
          "name": "",
          "type": "string"
        }
      ],
      "payable": false,
      "stateMutability": "view",
      "type": "function"
    },
    {
      "constant": false,
      "inputs": [
        {
          "name": "_to",
          "type": "address"
        },
        {
          "name": "_value",
          "type": "uint256"
        }
      ],
      "name": "transfer",
      "outputs": [
        {
          "name": "success",
          "type": "bool"
        }
      ],
      "payable": false,
      "stateMutability": "nonpayable",
      "type": "function"
    },
    {
      "constant": false,
      "inputs": [
        {
          "name": "_from",
          "type": "address"
        },
        {
          "name": "_to",
          "type": "address"
        }
      ],
      "name": "upvote",
      "outputs": [
        {
          "name": "success",
          "type": "bool"
        }
      ],
      "payable": false,
      "stateMutability": "nonpayable",
      "type": "function"
    },
    {
      "constant": true,
      "inputs": [
        {
          "name": "_owner",
          "type": "address"
        },
        {
          "name": "_spender",
          "type": "address"
        }
      ],
      "name": "allowance",
      "outputs": [
        {
          "name": "remaining",
          "type": "uint256"
        }
      ],
      "payable": false,
      "stateMutability": "view",
      "type": "function"
    },
    {
      "anonymous": false,
      "inputs": [
        {
          "indexed": true,
          "name": "from",
          "type": "address"
        },
        {
          "indexed": true,
          "name": "to",
          "type": "address"
        },
        {
          "indexed": false,
          "name": "value",
          "type": "uint256"
        }
      ],
      "name": "Transfer",
      "type": "event"
    },
    {
      "anonymous": false,
      "inputs": [
        {
          "indexed": true,
          "name": "owner",
          "type": "address"
        },
        {
          "indexed": true,
          "name": "spender",
          "type": "address"
        },
        {
          "indexed": false,
          "name": "value",
          "type": "uint256"
        }
      ],
      "name": "Approval",
      "type": "event"
    }
  ],
  "bytecode": "0x606060405260408051908101604052600a81527f4b61726d61546f6b656e000000000000000000000000000000000000000000006020820152600390805161004b9291602001906100b9565b5060408051908101604052600381527f4b524d0000000000000000000000000000000000000000000000000000000000602082015260049080516100939291602001906100b9565b50601260055560028054600160a060020a03191633600160a060020a0316179055610154565b828054600181600116156101000203166002900490600052602060002090601f016020900481019282601f106100fa57805160ff1916838001178555610127565b82800160010185558215610127579182015b8281111561012757825182559160200191906001019061010c565b50610133929150610137565b5090565b61015191905b80821115610133576000815560010161013d565b90565b61080e806101636000396000f3006060604052600436106100ae5763ffffffff7c010000000000000000000000000000000000000000000000000000000060003504166306fdde0381146100b3578063095ea7b31461013d57806313af40351461017357806323b872dd14610194578063313ce567146101bc5780633807aabd146101e157806370a082311461020357806395d89b4114610222578063a9059cbb14610235578063d8705f2514610257578063dd62ed3e1461027c575b600080fd5b34156100be57600080fd5b6100c66102a1565b60405160208082528190810183818151815260200191508051906020019080838360005b838110156101025780820151838201526020016100ea565b50505050905090810190601f16801561012f5780820380516001836020036101000a031916815260200191505b509250505060405180910390f35b341561014857600080fd5b61015f600160a060020a036004351660243561033f565b604051901515815260200160405180910390f35b341561017e57600080fd5b610192600160a060020a03600435166103ab565b005b341561019f57600080fd5b61015f600160a060020a03600435811690602435166044356103f5565b34156101c757600080fd5b6101cf610507565b60405190815260200160405180910390f35b34156101ec57600080fd5b61015f600160a060020a036004351660243561050d565b341561020e57600080fd5b6101cf600160a060020a03600435166105cc565b341561022d57600080fd5b6100c66105e7565b341561024057600080fd5b61015f600160a060020a0360043516602435610652565b341561026257600080fd5b61015f600160a060020a03600435811690602435166106b0565b341561028757600080fd5b6101cf600160a060020a036004358116906024351661078f565b60038054600181600116156101000203166002900480601f0160208091040260200160405190810160405280929190818152602001828054600181600116156101000203166002900480156103375780601f1061030c57610100808354040283529160200191610337565b820191906000526020600020905b81548152906001019060200180831161031a57829003601f168201915b505050505081565b600160a060020a03338116600081815260016020908152604080832094871680845294909152808220859055909291907f8c5be1e5ebec7d5bd14f71427d1e84f3dd0314c0f7b2291e5b200ac8c7c3b9259085905190815260200160405180910390a350600192915050565b60025433600160a060020a039081169116146103c657600080fd5b6002805473ffffffffffffffffffffffffffffffffffffffff1916600160a060020a0392909216919091179055565b600160a060020a038084166000908152600160209081526040808320338516845282528083205493861683529082905281205490919061043b908463ffffffff6107ba16565b600160a060020a038086166000908152602081905260408082209390935590871681522054610470908463ffffffff6107d016565b600160a060020a038616600090815260208190526040902055610499818463ffffffff6107d016565b600160a060020a03808716600081815260016020908152604080832033861684529091529081902093909355908616917fddf252ad1be2c89b69c2b068fc378daa952ba7f163c4a11628f55a4df523b3ef9086905190815260200160405180910390a3506000949350505050565b60055481565b60025460009033600160a060020a0390811691161461052b57600080fd5b600160a060020a038316600090815260208190526040902054610554908363ffffffff6107ba16565b60008085600160a060020a0316600160a060020a031681526020019081526020016000208190555082600160a060020a031633600160a060020a03167fddf252ad1be2c89b69c2b068fc378daa952ba7f163c4a11628f55a4df523b3ef8460405190815260200160405180910390a350600192915050565b600160a060020a031660009081526020819052604090205490565b60048054600181600116156101000203166002900480601f0160208091040260200160405190810160405280929190818152602001828054600181600116156101000203166002900480156103375780601f1061030c57610100808354040283529160200191610337565b600160a060020a03331660009081526020819052604081205461067b908363ffffffff6107d016565b600160a060020a033381166000908152602081905260408082209390935590851681522054610554908363ffffffff6107ba16565b60025460009033600160a060020a039081169116146106ce57600080fd5b600160a060020a0383166000908152602081905260409020546106f890600163ffffffff6107d016565b600160a060020a03808516600090815260208190526040808220939093559084168152205461072e90600163ffffffff6107ba16565b600160a060020a03808416600081815260208190526040908190209390935591908516907fddf252ad1be2c89b69c2b068fc378daa952ba7f163c4a11628f55a4df523b3ef906001905190815260200160405180910390a350600192915050565b600160a060020a03918216600090815260016020908152604080832093909416825291909152205490565b6000828201838110156107c957fe5b9392505050565b6000828211156107dc57fe5b509003905600a165627a7a72305820499e63162a9356b1ad9c58d4bde8f467cfc9a1863e37f27e7627568a9d2314560029",
  "source": "pragma solidity ^0.4.19;\n\n\nimport \"./StandardToken.sol\";\n\n\n/*\n * SimpleToken\n *\n * Very simple ERC20 Token example, where all tokens are pre-assigned\n * to the creator. Note they can later distribute these tokens\n * as they wish using `transfer` and other `StandardToken` functions.\n */\ncontract KarmaToken is StandardToken {\n\n  string public name = \"KarmaToken\";\n  string public symbol = \"KRM\";\n  uint public decimals = 18;\n  \n}",
  "sourcePath": "/Users/ivan/Code/work/dekachain/iotcamp/contracts/token/KarmaToken.sol",
  "compiler": {
    "name": "solc",
    "version": "0.4.21+commit.dfe3193c.Emscripten.clang"
  },
  "schemaVersion": "2.0.0",
  "updatedAt": "2018-04-09T19:30:26.985Z"
}