{
  "contractName": "SocialChain",
  "abi": [
    {
      "constant": true,
      "inputs": [
        {
          "name": "",
          "type": "uint256"
        }
      ],
      "name": "posts",
      "outputs": [
        {
          "name": "id",
          "type": "uint256"
        },
        {
          "name": "owner",
          "type": "address"
        },
        {
          "name": "content",
          "type": "string"
        }
      ],
      "payable": false,
      "stateMutability": "view",
      "type": "function"
    },
    {
      "constant": true,
      "inputs": [],
      "name": "postId",
      "outputs": [
        {
          "name": "",
          "type": "uint256"
        }
      ],
      "payable": false,
      "stateMutability": "view",
      "type": "function"
    },
    {
      "inputs": [
        {
          "name": "_karmaToken",
          "type": "address"
        }
      ],
      "payable": false,
      "stateMutability": "nonpayable",
      "type": "constructor"
    },
    {
      "constant": false,
      "inputs": [
        {
          "name": "_content",
          "type": "string"
        }
      ],
      "name": "publish",
      "outputs": [],
      "payable": false,
      "stateMutability": "nonpayable",
      "type": "function"
    },
    {
      "constant": false,
      "inputs": [
        {
          "name": "_postId",
          "type": "uint256"
        }
      ],
      "name": "upvote",
      "outputs": [
        {
          "name": "success",
          "type": "bool"
        }
      ],
      "payable": false,
      "stateMutability": "nonpayable",
      "type": "function"
    },
    {
      "constant": true,
      "inputs": [
        {
          "name": "_position",
          "type": "uint256"
        }
      ],
      "name": "getPost",
      "outputs": [
        {
          "name": "id",
          "type": "uint256"
        },
        {
          "name": "owner",
          "type": "address"
        },
        {
          "name": "content",
          "type": "string"
        },
        {
          "name": "liked",
          "type": "bool"
        }
      ],
      "payable": false,
      "stateMutability": "view",
      "type": "function"
    }
  ],
  "bytecode": "0x6060604052341561000f57600080fd5b60405160208061090b8339810160405280805160058054600160a060020a03909216600160a060020a031990921691909117905550506108b7806100546000396000f3006060604052600436106100535763ffffffff60e060020a60003504166301ddf07081146100585780630b1e7f8314610082578063243e280b1461012657806340731c241461017957806360a0ecda14610226575b600080fd5b341561006357600080fd5b61006e60043561024b565b604051901515815260200160405180910390f35b341561008d57600080fd5b61009860043561034c565b604051838152600160a060020a038316602082015260606040820181815290820183818151815260200191508051906020019080838360005b838110156100e95780820151838201526020016100d1565b50505050905090810190601f1680156101165780820380516001836020036101000a031916815260200191505b5094505050505060405180910390f35b341561013157600080fd5b61017760046024813581810190830135806020601f8201819004810201604051908101604052818152929190602084018383808284375094965061042f95505050505050565b005b341561018457600080fd5b61018f600435610592565b604051848152600160a060020a0384166020820152811515606082015260806040820181815290820184818151815260200191508051906020019080838360005b838110156101e85780820151838201526020016101d0565b50505050905090810190601f1680156102155780820380516001836020036101000a031916815260200191505b509550505050505060405180910390f35b341561023157600080fd5b6102396106f2565b60405190815260200160405180910390f35b6000818152600160209081526040808320600160a060020a033316845290915281205460ff16801561027c57600080fd5b600083815260016020818152604080842033600160a060020a038181168752919093529320805460ff191690921790915560055460048054919093169263d8705f259291879081106102ca57fe5b6000918252602090912060016003909202010154600160a060020a031660405160e060020a63ffffffff8516028152600160a060020a03928316600482015291166024820152604401602060405180830381600087803b151561032c57600080fd5b5af1151561033957600080fd5b5050506040518051506001949350505050565b600480548290811061035a57fe5b90600052602060002090600302016000915090508060000154908060010160009054906101000a9004600160a060020a031690806002018054600181600116156101000203166002900480601f0160208091040260200160405190810160405280929190818152602001828054600181600116156101000203166002900480156104255780601f106103fa57610100808354040283529160200191610425565b820191906000526020600020905b81548152906001019060200180831161040857829003601f168201915b5050505050905083565b600160a060020a03331660009081526002602052604090205460ff168015156104e457600554600160a060020a0316633807aabd33606460405160e060020a63ffffffff8516028152600160a060020a0390921660048301526024820152604401602060405180830381600087803b15156104a957600080fd5b5af115156104b657600080fd5b50505060405180515050600160a060020a0333166000908152600260205260409020805460ff191660011790555b60048054600181016104f683826106f8565b91600052602060002090600302016000606060405190810160409081526003548252600160a060020a0333166020830152810186905291905081518155602082015160018201805473ffffffffffffffffffffffffffffffffffffffff1916600160a060020a0392909216919091179055604082015181600201908051610581929160200190610729565b505060038054600101905550505050565b60008061059d6107a7565b60006105a76107b9565b60048054879081106105b557fe5b906000526020600020906003020160606040519081016040529081600082015481526020016001820160009054906101000a9004600160a060020a0316600160a060020a0316600160a060020a03168152602001600282018054600181600116156101000203166002900480601f0160208091040260200160405190810160405280929190818152602001828054600181600116156101000203166002900480156106a15780601f10610676576101008083540402835291602001916106a1565b820191906000526020600020905b81548152906001019060200180831161068457829003601f168201915b50505050508152505090508060000151816020015182604001516000988952600160209081526040808b2033600160a060020a03168c529091529098205491989097965060ff909116945092505050565b60035481565b8154818355818115116107245760030281600302836000526020600020918201910161072491906107df565b505050565b828054600181600116156101000203166002900490600052602060002090601f016020900481019282601f1061076a57805160ff1916838001178555610797565b82800160010185558215610797579182015b8281111561079757825182559160200191906001019061077c565b506107a392915061082a565b5090565b60206040519081016040526000815290565b606060405190810160409081526000808352602083015281016107da6107a7565b905290565b61082791905b808211156107a357600080825560018201805473ffffffffffffffffffffffffffffffffffffffff1916905561081e6002830182610844565b506003016107e5565b90565b61082791905b808211156107a35760008155600101610830565b50805460018160011615610100020316600290046000825580601f1061086a5750610888565b601f016020900490600052602060002090810190610888919061082a565b505600a165627a7a72305820d5d21dd38f9fca7a3a91709a3bf8c6aee34122eb255fdfde0cfeb91eb609ec4f0029",
  "source": "pragma solidity ^0.4.19;\n\nimport \"./token/KarmaToken.sol\";\n\ncontract SocialChain {\n\n    struct Post {\n        uint256 id;\n        address owner;\n        string content;\n    }\n\n    mapping(uint256 => uint256) postsKarma;\n    mapping(uint256 => mapping(address => bool)) userLiked;\n    mapping(address => bool) joined;\n\n    uint256 public postId;\n    Post[] public posts;\n\n    KarmaToken karmaToken;\n\n    function SocialChain(address _karmaToken) public {\n        karmaToken = KarmaToken(_karmaToken);\n    }\n\n    function publish(string _content) public {\n        bool exists = joined[msg.sender];\n\n        if (!exists) {\n            karmaToken.generate(msg.sender, 100);\n            joined[msg.sender] = true;\n        }\n\n        posts.push(Post(postId, msg.sender, _content));\n        postId++;\n    }\n\n    function upvote(uint256 _postId) public returns (bool success){\n        bool liked = userLiked[_postId][msg.sender];\n        require(!liked);\n\n        postsKarma[_postId] = postsKarma[_postId]++;\n        userLiked[_postId][msg.sender] = true;\n\n        karmaToken.upvote(msg.sender, posts[_postId].owner);\n        return true;\n    }\n\n    function getPost(uint256 _position) public view returns (uint256 id, address owner, string content, bool liked){\n        Post memory post = posts[_position];\n        return (post.id, post.owner, post.content, userLiked[_position][msg.sender]);\n    }\n}",
  "sourcePath": "/Users/ivan/Code/work/dekachain/iotcamp/contracts/SocialChain.sol",
  "compiler": {
    "name": "solc",
    "version": "0.4.21+commit.dfe3193c.Emscripten.clang"
  },
  "schemaVersion": "2.0.0",
  "updatedAt": "2018-04-09T19:30:26.990Z"
}