{
  "contractName": "StandardToken",
  "abi": [
    {
      "inputs": [],
      "payable": false,
      "stateMutability": "nonpayable",
      "type": "constructor"
    },
    {
      "anonymous": false,
      "inputs": [
        {
          "indexed": true,
          "name": "from",
          "type": "address"
        },
        {
          "indexed": true,
          "name": "to",
          "type": "address"
        },
        {
          "indexed": false,
          "name": "value",
          "type": "uint256"
        }
      ],
      "name": "Transfer",
      "type": "event"
    },
    {
      "anonymous": false,
      "inputs": [
        {
          "indexed": true,
          "name": "owner",
          "type": "address"
        },
        {
          "indexed": true,
          "name": "spender",
          "type": "address"
        },
        {
          "indexed": false,
          "name": "value",
          "type": "uint256"
        }
      ],
      "name": "Approval",
      "type": "event"
    },
    {
      "constant": false,
      "inputs": [
        {
          "name": "_owner",
          "type": "address"
        }
      ],
      "name": "setOwner",
      "outputs": [],
      "payable": false,
      "stateMutability": "nonpayable",
      "type": "function"
    },
    {
      "constant": false,
      "inputs": [
        {
          "name": "_to",
          "type": "address"
        },
        {
          "name": "_amount",
          "type": "uint256"
        }
      ],
      "name": "generate",
      "outputs": [
        {
          "name": "success",
          "type": "bool"
        }
      ],
      "payable": false,
      "stateMutability": "nonpayable",
      "type": "function"
    },
    {
      "constant": false,
      "inputs": [
        {
          "name": "_from",
          "type": "address"
        },
        {
          "name": "_to",
          "type": "address"
        }
      ],
      "name": "upvote",
      "outputs": [
        {
          "name": "success",
          "type": "bool"
        }
      ],
      "payable": false,
      "stateMutability": "nonpayable",
      "type": "function"
    },
    {
      "constant": false,
      "inputs": [
        {
          "name": "_to",
          "type": "address"
        },
        {
          "name": "_value",
          "type": "uint256"
        }
      ],
      "name": "transfer",
      "outputs": [
        {
          "name": "success",
          "type": "bool"
        }
      ],
      "payable": false,
      "stateMutability": "nonpayable",
      "type": "function"
    },
    {
      "constant": false,
      "inputs": [
        {
          "name": "_from",
          "type": "address"
        },
        {
          "name": "_to",
          "type": "address"
        },
        {
          "name": "_value",
          "type": "uint256"
        }
      ],
      "name": "transferFrom",
      "outputs": [
        {
          "name": "success",
          "type": "bool"
        }
      ],
      "payable": false,
      "stateMutability": "nonpayable",
      "type": "function"
    },
    {
      "constant": true,
      "inputs": [
        {
          "name": "_owner",
          "type": "address"
        }
      ],
      "name": "balanceOf",
      "outputs": [
        {
          "name": "balance",
          "type": "uint256"
        }
      ],
      "payable": false,
      "stateMutability": "view",
      "type": "function"
    },
    {
      "constant": false,
      "inputs": [
        {
          "name": "_spender",
          "type": "address"
        },
        {
          "name": "_value",
          "type": "uint256"
        }
      ],
      "name": "approve",
      "outputs": [
        {
          "name": "success",
          "type": "bool"
        }
      ],
      "payable": false,
      "stateMutability": "nonpayable",
      "type": "function"
    },
    {
      "constant": true,
      "inputs": [
        {
          "name": "_owner",
          "type": "address"
        },
        {
          "name": "_spender",
          "type": "address"
        }
      ],
      "name": "allowance",
      "outputs": [
        {
          "name": "remaining",
          "type": "uint256"
        }
      ],
      "payable": false,
      "stateMutability": "view",
      "type": "function"
    }
  ],
  "bytecode": "0x6060604052341561000f57600080fd5b60028054600160a060020a03191633600160a060020a031617905561062e806100396000396000f30060606040526004361061008d5763ffffffff7c0100000000000000000000000000000000000000000000000000000000600035041663095ea7b3811461009257806313af4035146100c857806323b872dd146100e95780633807aabd1461011157806370a0823114610133578063a9059cbb14610164578063d8705f2514610186578063dd62ed3e146101ab575b600080fd5b341561009d57600080fd5b6100b4600160a060020a03600435166024356101d0565b604051901515815260200160405180910390f35b34156100d357600080fd5b6100e7600160a060020a036004351661023c565b005b34156100f457600080fd5b6100b4600160a060020a0360043581169060243516604435610286565b341561011c57600080fd5b6100b4600160a060020a0360043516602435610398565b341561013e57600080fd5b610152600160a060020a0360043516610457565b60405190815260200160405180910390f35b341561016f57600080fd5b6100b4600160a060020a0360043516602435610472565b341561019157600080fd5b6100b4600160a060020a03600435811690602435166104d0565b34156101b657600080fd5b610152600160a060020a03600435811690602435166105af565b600160a060020a03338116600081815260016020908152604080832094871680845294909152808220859055909291907f8c5be1e5ebec7d5bd14f71427d1e84f3dd0314c0f7b2291e5b200ac8c7c3b9259085905190815260200160405180910390a350600192915050565b60025433600160a060020a0390811691161461025757600080fd5b6002805473ffffffffffffffffffffffffffffffffffffffff1916600160a060020a0392909216919091179055565b600160a060020a03808416600090815260016020908152604080832033851684528252808320549386168352908290528120549091906102cc908463ffffffff6105da16565b600160a060020a038086166000908152602081905260408082209390935590871681522054610301908463ffffffff6105f016565b600160a060020a03861660009081526020819052604090205561032a818463ffffffff6105f016565b600160a060020a03808716600081815260016020908152604080832033861684529091529081902093909355908616917fddf252ad1be2c89b69c2b068fc378daa952ba7f163c4a11628f55a4df523b3ef9086905190815260200160405180910390a3506000949350505050565b60025460009033600160a060020a039081169116146103b657600080fd5b600160a060020a0383166000908152602081905260409020546103df908363ffffffff6105da16565b60008085600160a060020a0316600160a060020a031681526020019081526020016000208190555082600160a060020a031633600160a060020a03167fddf252ad1be2c89b69c2b068fc378daa952ba7f163c4a11628f55a4df523b3ef8460405190815260200160405180910390a350600192915050565b600160a060020a031660009081526020819052604090205490565b600160a060020a03331660009081526020819052604081205461049b908363ffffffff6105f016565b600160a060020a0333811660009081526020819052604080822093909355908516815220546103df908363ffffffff6105da16565b60025460009033600160a060020a039081169116146104ee57600080fd5b600160a060020a03831660009081526020819052604090205461051890600163ffffffff6105f016565b600160a060020a03808516600090815260208190526040808220939093559084168152205461054e90600163ffffffff6105da16565b600160a060020a03808416600081815260208190526040908190209390935591908516907fddf252ad1be2c89b69c2b068fc378daa952ba7f163c4a11628f55a4df523b3ef906001905190815260200160405180910390a350600192915050565b600160a060020a03918216600090815260016020908152604080832093909416825291909152205490565b6000828201838110156105e957fe5b9392505050565b6000828211156105fc57fe5b509003905600a165627a7a72305820690ac461e1e5791b9072297b1bdd519ce4159e46e7f3478752e88bf6148f9ceb0029",
  "source": "pragma solidity ^0.4.19;\n\n\nimport './ERC20.sol';\nimport '../SafeMath.sol';\n\n\n/**\n * Standard ERC20 token\n *\n * https://github.com/ethereum/EIPs/issues/20\n * Based on code by FirstBlood:\n * https://github.com/Firstbloodio/token/blob/master/smart_contract/FirstBloodToken.sol\n */\ncontract StandardToken is ERC20 {\n  using SafeMath for uint256;\n\n  mapping(address => uint256) balances;\n  mapping (address => mapping (address => uint256)) allowed;\n\n  address owner;\n\n  modifier onlyOwner() {\n    require(msg.sender == owner);\n    _;  \n  } \n\n  function StandardToken() public {\n    owner = msg.sender;\n  }\n\n  function setOwner(address _owner) onlyOwner public {\n    owner = _owner;\n  }\n\n  function generate(address _to, uint256 _amount) onlyOwner public returns (bool success) {\n    balances[_to] = balances[_to].add(_amount);\n    emit Transfer(msg.sender, _to, _amount);\n    return true;\n  }\n\n  function upvote(address _from, address _to) onlyOwner public returns (bool success) {\n    balances[_from] = balances[_from].sub(1);\n    balances[_to] = balances[_to].add(1);\n    emit Transfer(_from, _to, 1);\n    return true;\n  }\n\n  function transfer(address _to, uint256 _value) public returns (bool success) {\n    balances[msg.sender] = balances[msg.sender].sub(_value);\n    balances[_to] = balances[_to].add(_value);\n    emit Transfer(msg.sender, _to, _value);\n    return true;\n  }\n\n  function transferFrom(address _from, address _to, uint256 _value) public returns (bool success) {\n    uint256 _allowance = allowed[_from][msg.sender];\n    balances[_to] = balances[_to].add(_value);\n    balances[_from] = balances[_from].sub(_value);\n    allowed[_from][msg.sender] = _allowance.sub(_value);\n    emit Transfer(_from, _to, _value);\n    return false;\n  }\n\n  function balanceOf(address _owner) view public returns (uint256 balance) {\n    return balances[_owner];\n  }\n\n  function approve(address _spender, uint256 _value) public returns (bool success) {\n    allowed[msg.sender][_spender] = _value;\n    emit Approval(msg.sender, _spender, _value);\n    return true;\n  }\n\n  function allowance(address _owner, address _spender) view public returns (uint256 remaining) {\n    return allowed[_owner][_spender];\n  }\n\n}",
  "sourcePath": "/Users/ivan/Code/work/dekachain/iotcamp/contracts/token/StandardToken.sol",
  "compiler": {
    "name": "solc",
    "version": "0.4.21+commit.dfe3193c.Emscripten.clang"
  },
  "schemaVersion": "2.0.0",
  "updatedAt": "2018-04-09T19:04:23.279Z"
}